:03000000020003F8
:0C000300787FE4F6D8FD75810F02004AFA
:1001F2003F065B4F666D7D077F6FFEFDFBF7EFDF0E
:06021F00010F64010ECC8A
:10010600E4F508F509F50AF50BAF0B12014D8F085A
:10011600050AC3E50A9464748094804021AF0B12EB
:10012600014D8F08E508C3950F4006E4F5907580EC
:10013600FFE508C3950F50067590FFE4F580E4FDD2
:07014600AF0812008F80C911
:09020D00D2A100D2A000C2A0227F
:10016E007E087D80C2A1EF5D7004C2A08002D2A085
:0E017E00C2A100D2A100C2A1EF25E0FFDEE683
:01018C002250
:10018D007F80E4FE7D08D2A0C2A100D2A10030A0E4
:0C019D0003EF4206EFC313FFDDEEAF06D8
:0101A9002233
:0A01DD00AC0712020D7F9012016EB4
:0B01E700C2A0C2A100D2A100C2A12250
:0B020200C2A1D2A000D2A100C2A12224
:09021600D2A100C2A000D2A02276
:1001C7001201DD7F4012016E1201E7AF0412016ECA
:0601D7001201E70202160E
:1001AA00AD071FED6016E4FEEEFD3395E0FCC3EDEE
:0C01BA009478EC6480948050E70E80EC98
:0101C6002216
:02008F00AE07BA
:100091007B01EE75F03284FAEE75F03284E5F0758D
:1000A100F00A84FFED75F00A84F50CED75F00A8411
:1000B10085F00D900201E493F580D2A7C2A7EF333A
:1000C10095E0FE74F22FF58274013EF583E493F519
:1000D10080D2A6C2A67F011201AA900200E493F584
:1000E10080D2A7C2A7AF02EF3395E0FE74F22FF5DD
:1000F1008274013EF583E4934480F580D2A6C2A6C2
:050101007F010201AACC
:10014D001201DDEC4440FF12016E1201E712020DA7
:10015D007F9112016E1201E712018D12020202024D
:01016D00167B
:10000F00020106E493A3F8E493A34003F68001F200
:10001F0008DFF48029E493A3F85407240CC8C333F2
:10002F00C4540F4420C8834004F456800146F6DFC1
:10003F00E4800B010204081020408090021FE47E30
:10004F00019360BCA3FF543F30E509541FFEE493B6
:10005F00A360010ECF54C025E060A840B8E493A37D
:10006F00FAE493A3F8E493A3C8C582C8CAC583CAA8
:10007F00F0A3C8C582C8CAC583CADFE9DEE780BE60
:0102250000D8
:00000001FF
